{
  "_format": "hh-sol-artifact-1",
  "contractName": "FitRewardsClaim",
  "sourceName": "contracts/FitRewardsClaim.sol",
  "abi": [
    {
      "inputs": [
        {
          "internalType": "address",
          "name": "initialOwner",
          "type": "address"
        }
      ],
      "stateMutability": "nonpayable",
      "type": "constructor"
    },
    {
      "inputs": [],
      "name": "ECDSAInvalidSignature",
      "type": "error"
    },
    {
      "inputs": [
        {
          "internalType": "uint256",
          "name": "length",
          "type": "uint256"
        }
      ],
      "name": "ECDSAInvalidSignatureLength",
      "type": "error"
    },
    {
      "inputs": [
        {
          "internalType": "bytes32",
          "name": "s",
          "type": "bytes32"
        }
      ],
      "name": "ECDSAInvalidSignatureS",
      "type": "error"
    },
    {
      "inputs": [
        {
          "internalType": "address",
          "name": "spender",
          "type": "address"
        },
        {
          "internalType": "uint256",
          "name": "allowance",
          "type": "uint256"
        },
        {
          "internalType": "uint256",
          "name": "needed",
          "type": "uint256"
        }
      ],
      "name": "ERC20InsufficientAllowance",
      "type": "error"
    },
    {
      "inputs": [
        {
          "internalType": "address",
          "name": "sender",
          "type": "address"
        },
        {
          "internalType": "uint256",
          "name": "balance",
          "type": "uint256"
        },
        {
          "internalType": "uint256",
          "name": "needed",
          "type": "uint256"
        }
      ],
      "name": "ERC20InsufficientBalance",
      "type": "error"
    },
    {
      "inputs": [
        {
          "internalType": "address",
          "name": "approver",
          "type": "address"
        }
      ],
      "name": "ERC20InvalidApprover",
      "type": "error"
    },
    {
      "inputs": [
        {
          "internalType": "address",
          "name": "receiver",
          "type": "address"
        }
      ],
      "name": "ERC20InvalidReceiver",
      "type": "error"
    },
    {
      "inputs": [
        {
          "internalType": "address",
          "name": "sender",
          "type": "address"
        }
      ],
      "name": "ERC20InvalidSender",
      "type": "error"
    },
    {
      "inputs": [
        {
          "internalType": "address",
          "name": "spender",
          "type": "address"
        }
      ],
      "name": "ERC20InvalidSpender",
      "type": "error"
    },
    {
      "inputs": [],
      "name": "InvalidShortString",
      "type": "error"
    },
    {
      "inputs": [
        {
          "internalType": "address",
          "name": "owner",
          "type": "address"
        }
      ],
      "name": "OwnableInvalidOwner",
      "type": "error"
    },
    {
      "inputs": [
        {
          "internalType": "address",
          "name": "account",
          "type": "address"
        }
      ],
      "name": "OwnableUnauthorizedAccount",
      "type": "error"
    },
    {
      "inputs": [
        {
          "internalType": "string",
          "name": "str",
          "type": "string"
        }
      ],
      "name": "StringTooLong",
      "type": "error"
    },
    {
      "anonymous": false,
      "inputs": [
        {
          "indexed": true,
          "internalType": "address",
          "name": "user",
          "type": "address"
        },
        {
          "indexed": false,
          "internalType": "uint16",
          "name": "newStreak",
          "type": "uint16"
        },
        {
          "indexed": false,
          "internalType": "uint256",
          "name": "mintedWei",
          "type": "uint256"
        }
      ],
      "name": "ActivityLogged",
      "type": "event"
    },
    {
      "anonymous": false,
      "inputs": [
        {
          "indexed": true,
          "internalType": "address",
          "name": "owner",
          "type": "address"
        },
        {
          "indexed": true,
          "internalType": "address",
          "name": "spender",
          "type": "address"
        },
        {
          "indexed": false,
          "internalType": "uint256",
          "name": "value",
          "type": "uint256"
        }
      ],
      "name": "Approval",
      "type": "event"
    },
    {
      "anonymous": false,
      "inputs": [
        {
          "indexed": true,
          "internalType": "address",
          "name": "user",
          "type": "address"
        },
        {
          "indexed": false,
          "internalType": "uint256",
          "name": "amountWei",
          "type": "uint256"
        },
        {
          "indexed": true,
          "internalType": "bytes32",
          "name": "claimIdHash",
          "type": "bytes32"
        }
      ],
      "name": "Claimed",
      "type": "event"
    },
    {
      "anonymous": false,
      "inputs": [],
      "name": "EIP712DomainChanged",
      "type": "event"
    },
    {
      "anonymous": false,
      "inputs": [
        {
          "indexed": true,
          "internalType": "address",
          "name": "previousOwner",
          "type": "address"
        },
        {
          "indexed": true,
          "internalType": "address",
          "name": "newOwner",
          "type": "address"
        }
      ],
      "name": "OwnershipTransferred",
      "type": "event"
    },
    {
      "anonymous": false,
      "inputs": [
        {
          "indexed": true,
          "internalType": "address",
          "name": "newSigner",
          "type": "address"
        }
      ],
      "name": "RewardSignerUpdated",
      "type": "event"
    },
    {
      "anonymous": false,
      "inputs": [
        {
          "indexed": true,
          "internalType": "address",
          "name": "from",
          "type": "address"
        },
        {
          "indexed": true,
          "internalType": "address",
          "name": "to",
          "type": "address"
        },
        {
          "indexed": false,
          "internalType": "uint256",
          "name": "value",
          "type": "uint256"
        }
      ],
      "name": "Transfer",
      "type": "event"
    },
    {
      "inputs": [
        {
          "internalType": "address",
          "name": "owner",
          "type": "address"
        },
        {
          "internalType": "address",
          "name": "spender",
          "type": "address"
        }
      ],
      "name": "allowance",
      "outputs": [
        {
          "internalType": "uint256",
          "name": "",
          "type": "uint256"
        }
      ],
      "stateMutability": "view",
      "type": "function"
    },
    {
      "inputs": [
        {
          "internalType": "address",
          "name": "spender",
          "type": "address"
        },
        {
          "internalType": "uint256",
          "name": "value",
          "type": "uint256"
        }
      ],
      "name": "approve",
      "outputs": [
        {
          "internalType": "bool",
          "name": "",
          "type": "bool"
        }
      ],
      "stateMutability": "nonpayable",
      "type": "function"
    },
    {
      "inputs": [
        {
          "internalType": "address",
          "name": "account",
          "type": "address"
        }
      ],
      "name": "balanceOf",
      "outputs": [
        {
          "internalType": "uint256",
          "name": "",
          "type": "uint256"
        }
      ],
      "stateMutability": "view",
      "type": "function"
    },
    {
      "inputs": [
        {
          "internalType": "uint256",
          "name": "amountWei",
          "type": "uint256"
        },
        {
          "internalType": "bytes32",
          "name": "claimIdHash",
          "type": "bytes32"
        },
        {
          "internalType": "uint256",
          "name": "deadline",
          "type": "uint256"
        },
        {
          "internalType": "bytes",
          "name": "signature",
          "type": "bytes"
        }
      ],
      "name": "claimWithSig",
      "outputs": [],
      "stateMutability": "nonpayable",
      "type": "function"
    },
    {
      "inputs": [],
      "name": "decimals",
      "outputs": [
        {
          "internalType": "uint8",
          "name": "",
          "type": "uint8"
        }
      ],
      "stateMutability": "view",
      "type": "function"
    },
    {
      "inputs": [],
      "name": "eip712Domain",
      "outputs": [
        {
          "internalType": "bytes1",
          "name": "fields",
          "type": "bytes1"
        },
        {
          "internalType": "string",
          "name": "name",
          "type": "string"
        },
        {
          "internalType": "string",
          "name": "version",
          "type": "string"
        },
        {
          "internalType": "uint256",
          "name": "chainId",
          "type": "uint256"
        },
        {
          "internalType": "address",
          "name": "verifyingContract",
          "type": "address"
        },
        {
          "internalType": "bytes32",
          "name": "salt",
          "type": "bytes32"
        },
        {
          "internalType": "uint256[]",
          "name": "extensions",
          "type": "uint256[]"
        }
      ],
      "stateMutability": "view",
      "type": "function"
    },
    {
      "inputs": [
        {
          "internalType": "address",
          "name": "user",
          "type": "address"
        }
      ],
      "name": "getUser",
      "outputs": [
        {
          "internalType": "uint32",
          "name": "lastDay",
          "type": "uint32"
        },
        {
          "internalType": "uint16",
          "name": "streak",
          "type": "uint16"
        },
        {
          "internalType": "uint128",
          "name": "totalEarnedWhole",
          "type": "uint128"
        }
      ],
      "stateMutability": "view",
      "type": "function"
    },
    {
      "inputs": [],
      "name": "logActivity",
      "outputs": [],
      "stateMutability": "nonpayable",
      "type": "function"
    },
    {
      "inputs": [],
      "name": "name",
      "outputs": [
        {
          "internalType": "string",
          "name": "",
          "type": "string"
        }
      ],
      "stateMutability": "view",
      "type": "function"
    },
    {
      "inputs": [
        {
          "internalType": "address",
          "name": "",
          "type": "address"
        }
      ],
      "name": "nonces",
      "outputs": [
        {
          "internalType": "uint256",
          "name": "",
          "type": "uint256"
        }
      ],
      "stateMutability": "view",
      "type": "function"
    },
    {
      "inputs": [],
      "name": "owner",
      "outputs": [
        {
          "internalType": "address",
          "name": "",
          "type": "address"
        }
      ],
      "stateMutability": "view",
      "type": "function"
    },
    {
      "inputs": [],
      "name": "renounceOwnership",
      "outputs": [],
      "stateMutability": "nonpayable",
      "type": "function"
    },
    {
      "inputs": [],
      "name": "rewardPerDay",
      "outputs": [
        {
          "internalType": "uint256",
          "name": "",
          "type": "uint256"
        }
      ],
      "stateMutability": "view",
      "type": "function"
    },
    {
      "inputs": [],
      "name": "rewardSigner",
      "outputs": [
        {
          "internalType": "address",
          "name": "",
          "type": "address"
        }
      ],
      "stateMutability": "view",
      "type": "function"
    },
    {
      "inputs": [
        {
          "internalType": "uint256",
          "name": "newRewardPerDay",
          "type": "uint256"
        }
      ],
      "name": "setRewardPerDay",
      "outputs": [],
      "stateMutability": "nonpayable",
      "type": "function"
    },
    {
      "inputs": [
        {
          "internalType": "address",
          "name": "newSigner",
          "type": "address"
        }
      ],
      "name": "setRewardSigner",
      "outputs": [],
      "stateMutability": "nonpayable",
      "type": "function"
    },
    {
      "inputs": [
        {
          "internalType": "uint256",
          "name": "bonusDay",
          "type": "uint256"
        },
        {
          "internalType": "uint256",
          "name": "bonusBps",
          "type": "uint256"
        }
      ],
      "name": "setStreakBonus",
      "outputs": [],
      "stateMutability": "nonpayable",
      "type": "function"
    },
    {
      "inputs": [],
      "name": "streakBonusBps",
      "outputs": [
        {
          "internalType": "uint256",
          "name": "",
          "type": "uint256"
        }
      ],
      "stateMutability": "view",
      "type": "function"
    },
    {
      "inputs": [],
      "name": "streakBonusDay",
      "outputs": [
        {
          "internalType": "uint256",
          "name": "",
          "type": "uint256"
        }
      ],
      "stateMutability": "view",
      "type": "function"
    },
    {
      "inputs": [],
      "name": "symbol",
      "outputs": [
        {
          "internalType": "string",
          "name": "",
          "type": "string"
        }
      ],
      "stateMutability": "view",
      "type": "function"
    },
    {
      "inputs": [],
      "name": "todayDayIndex",
      "outputs": [
        {
          "internalType": "uint32",
          "name": "",
          "type": "uint32"
        }
      ],
      "stateMutability": "view",
      "type": "function"
    },
    {
      "inputs": [],
      "name": "totalSupply",
      "outputs": [
        {
          "internalType": "uint256",
          "name": "",
          "type": "uint256"
        }
      ],
      "stateMutability": "view",
      "type": "function"
    },
    {
      "inputs": [
        {
          "internalType": "address",
          "name": "to",
          "type": "address"
        },
        {
          "internalType": "uint256",
          "name": "value",
          "type": "uint256"
        }
      ],
      "name": "transfer",
      "outputs": [
        {
          "internalType": "bool",
          "name": "",
          "type": "bool"
        }
      ],
      "stateMutability": "nonpayable",
      "type": "function"
    },
    {
      "inputs": [
        {
          "internalType": "address",
          "name": "from",
          "type": "address"
        },
        {
          "internalType": "address",
          "name": "to",
          "type": "address"
        },
        {
          "internalType": "uint256",
          "name": "value",
          "type": "uint256"
        }
      ],
      "name": "transferFrom",
      "outputs": [
        {
          "internalType": "bool",
          "name": "",
          "type": "bool"
        }
      ],
      "stateMutability": "nonpayable",
      "type": "function"
    },
    {
      "inputs": [
        {
          "internalType": "address",
          "name": "newOwner",
          "type": "address"
        }
      ],
      "name": "transferOwnership",
      "outputs": [],
      "stateMutability": "nonpayable",
      "type": "function"
    },
    {
      "inputs": [
        {
          "internalType": "address",
          "name": "",
          "type": "address"
        }
      ],
      "name": "users",
      "outputs": [
        {
          "internalType": "uint32",
          "name": "lastActivityDay",
          "type": "uint32"
        },
        {
          "internalType": "uint16",
          "name": "streak",
          "type": "uint16"
        },
        {
          "internalType": "uint128",
          "name": "totalEarned",
          "type": "uint128"
        }
      ],
      "stateMutability": "view",
      "type": "function"
    }
  ],
  "bytecode": "0x610160604052600a6009556007600a556107d0600b5534801561002157600080fd5b50604051613ae5380380613ae58339818101604052810190610043919061053a565b6040518060400160405280600a81526020017f46697452657761726473000000000000000000000000000000000000000000008152506040518060400160405280600181526020017f3100000000000000000000000000000000000000000000000000000000000000815250826040518060400160405280600e81526020017f466974436861696e20546f6b656e0000000000000000000000000000000000008152506040518060400160405280600381526020017f4649540000000000000000000000000000000000000000000000000000000000815250816003908161012b91906107b7565b50806004908161013b91906107b7565b505050600073ffffffffffffffffffffffffffffffffffffffff168173ffffffffffffffffffffffffffffffffffffffff16036101b05760006040517f1e4fbdf70000000000000000000000000000000000000000000000000000000081526004016101a79190610898565b60405180910390fd5b6101bf816102f460201b60201c565b506101d46006836103ba60201b90919060201c565b61012081815250506101f06007826103ba60201b90919060201c565b6101408181525050818051906020012060e08181525050808051906020012061010081815250504660a0818152505061022d61040a60201b60201c565b608081815250503073ffffffffffffffffffffffffffffffffffffffff1660c08173ffffffffffffffffffffffffffffffffffffffff1681525050505080600c60006101000a81548173ffffffffffffffffffffffffffffffffffffffff021916908373ffffffffffffffffffffffffffffffffffffffff1602179055508073ffffffffffffffffffffffffffffffffffffffff167fbd3eb9bd8180ec207ddf002fc988007100cdd87326029bf5c65befc588eae65760405160405180910390a250610a6c565b6000600560009054906101000a900473ffffffffffffffffffffffffffffffffffffffff16905081600560006101000a81548173ffffffffffffffffffffffffffffffffffffffff021916908373ffffffffffffffffffffffffffffffffffffffff1602179055508173ffffffffffffffffffffffffffffffffffffffff168173ffffffffffffffffffffffffffffffffffffffff167f8be0079c531659141344cd1fd0a4f28419497f9722a3daafe3b4186f6b6457e060405160405180910390a35050565b60006020835110156103dc576103d58361046560201b60201c565b9050610404565b826103ec836104cd60201b60201c565b60000190816103fb91906107b7565b5060ff60001b90505b92915050565b60007f8b73c3c69bb8fe3d512ecc4cf759cc79239f7b179b0ffacaa9a75d522b39400f60e05161010051463060405160200161044a9594939291906108db565b60405160208183030381529060405280519060200120905090565b600080829050601f815111156104b257826040517f305a27a90000000000000000000000000000000000000000000000000000000081526004016104a991906109b3565b60405180910390fd5b8051816104be90610a05565b60001c1760001b915050919050565b6000819050919050565b600080fd5b600073ffffffffffffffffffffffffffffffffffffffff82169050919050565b6000610507826104dc565b9050919050565b610517816104fc565b811461052257600080fd5b50565b6000815190506105348161050e565b92915050565b6000602082840312156105505761054f6104d7565b5b600061055e84828501610525565b91505092915050565b600081519050919050565b7f4e487b7100000000000000000000000000000000000000000000000000000000600052604160045260246000fd5b7f4e487b7100000000000000000000000000000000000000000000000000000000600052602260045260246000fd5b600060028204905060018216806105e857607f821691505b6020821081036105fb576105fa6105a1565b5b50919050565b60008190508160005260206000209050919050565b60006020601f8301049050919050565b600082821b905092915050565b6000600883026106637fffffffffffffffffffffffffffffffffffffffffffffffffffffffffffffffff82610626565b61066d8683610626565b95508019841693508086168417925050509392505050565b6000819050919050565b6000819050919050565b60006106b46106af6106aa84610685565b61068f565b610685565b9050919050565b6000819050919050565b6106ce83610699565b6106e26106da826106bb565b848454610633565b825550505050565b600090565b6106f76106ea565b6107028184846106c5565b505050565b5b818110156107265761071b6000826106ef565b600181019050610708565b5050565b601f82111561076b5761073c81610601565b61074584610616565b81016020851015610754578190505b61076861076085610616565b830182610707565b50505b505050565b600082821c905092915050565b600061078e60001984600802610770565b1980831691505092915050565b60006107a7838361077d565b9150826002028217905092915050565b6107c082610567565b67ffffffffffffffff8111156107d9576107d8610572565b5b6107e382546105d0565b6107ee82828561072a565b600060209050601f831160018114610821576000841561080f578287015190505b610819858261079b565b865550610881565b601f19841661082f86610601565b60005b8281101561085757848901518255600182019150602085019450602081019050610832565b868310156108745784890151610870601f89168261077d565b8355505b6001600288020188555050505b505050505050565b610892816104fc565b82525050565b60006020820190506108ad6000830184610889565b92915050565b6000819050919050565b6108c6816108b3565b82525050565b6108d581610685565b82525050565b600060a0820190506108f060008301886108bd565b6108fd60208301876108bd565b61090a60408301866108bd565b61091760608301856108cc565b6109246080830184610889565b9695505050505050565b600082825260208201905092915050565b60005b8381101561095d578082015181840152602081019050610942565b60008484015250505050565b6000601f19601f8301169050919050565b600061098582610567565b61098f818561092e565b935061099f81856020860161093f565b6109a881610969565b840191505092915050565b600060208201905081810360008301526109cd818461097a565b905092915050565b600081519050919050565b6000819050602082019050919050565b60006109fc82516108b3565b80915050919050565b6000610a10826109d5565b82610a1a846109e0565b9050610a25816109f0565b92506020821015610a6557610a607fffffffffffffffffffffffffffffffffffffffffffffffffffffffffffffffff83602003600802610626565b831692505b5050919050565b60805160a05160c05160e05161010051610120516101405161301f610ac66000396000611612015260006115d701526000611ea801526000611e8701526000611b3a01526000611b9001526000611bb9015261301f6000f3fe608060405234801561001057600080fd5b506004361061018e5760003560e01c806384b0196e116100de578063a9059cbb11610097578063dd62ed3e11610071578063dd62ed3e1461047f578063df986d88146104af578063e64b4b56146104cd578063f2fde38b146104eb5761018e565b8063a9059cbb14610415578063af8f42b814610445578063c69d65d1146104635761018e565b806384b0196e1461034b5780638da5cb5b1461036f57806390c35a931461038d57806395d89b41146103a9578063a5b18cea146103c7578063a87430ba146103e35761018e565b8063323f24ab1161014b5780636f77926b116101255780636f77926b146102af57806370a08231146102e1578063715018a6146103115780637ecebe001461031b5761018e565b8063323f24ab146102695780634568d65a146102875780634c3e5a8b146102915761018e565b806306fdde0314610193578063095ea7b3146101b157806311cdf5d3146101e157806318160ddd146101fd57806323b872dd1461021b578063313ce5671461024b575b600080fd5b61019b610507565b6040516101a891906120cc565b60405180910390f35b6101cb60048036038101906101c6919061218c565b610599565b6040516101d891906121e7565b60405180910390f35b6101fb60048036038101906101f69190612202565b6105bc565b005b61020561066c565b6040516102129190612251565b60405180910390f35b6102356004803603810190610230919061226c565b610676565b60405161024291906121e7565b60405180910390f35b6102536106a5565b60405161026091906122db565b60405180910390f35b6102716106ae565b60405161027e9190612305565b60405180910390f35b61028f6106d4565b005b610299610989565b6040516102a6919061233f565b60405180910390f35b6102c960048036038101906102c4919061235a565b610999565b6040516102d8939291906123cf565b60405180910390f35b6102fb60048036038101906102f6919061235a565b610a98565b6040516103089190612251565b60405180910390f35b610319610ae0565b005b6103356004803603810190610330919061235a565b610af4565b6040516103429190612251565b60405180910390f35b610353610b0c565b6040516103669796959493929190612518565b60405180910390f35b610377610bb6565b6040516103849190612305565b60405180910390f35b6103a760048036038101906103a2919061259c565b610be0565b005b6103b1610c43565b6040516103be91906120cc565b60405180910390f35b6103e160048036038101906103dc919061265a565b610cd5565b005b6103fd60048036038101906103f8919061235a565b610fa0565b60405161040c939291906123cf565b60405180910390f35b61042f600480360381019061042a919061218c565b611004565b60405161043c91906121e7565b60405180910390f35b61044d611027565b60405161045a9190612251565b60405180910390f35b61047d6004803603810190610478919061235a565b61102d565b005b610499600480360381019061049491906126e2565b61112b565b6040516104a69190612251565b60405180910390f35b6104b76111b2565b6040516104c49190612251565b60405180910390f35b6104d56111b8565b6040516104e29190612251565b60405180910390f35b6105056004803603810190610500919061235a565b6111be565b005b60606003805461051690612751565b80601f016020809104026020016040519081016040528092919081815260200182805461054290612751565b801561058f5780601f106105645761010080835404028352916020019161058f565b820191906000526020600020905b81548152906001019060200180831161057257829003601f168201915b5050505050905090565b6000806105a4611244565b90506105b181858561124c565b600191505092915050565b6105c461125e565b600282101580156105d65750603c8211155b610615576040517f08c379a000000000000000000000000000000000000000000000000000000000815260040161060c906127ce565b60405180910390fd5b61271081111561065a576040517f08c379a00000000000000000000000000000000000000000000000000000000081526004016106519061283a565b60405180910390fd5b81600a8190555080600b819055505050565b6000600254905090565b600080610681611244565b905061068e8582856112e5565b61069985858561137a565b60019150509392505050565b60006012905090565b600c60009054906101000a900473ffffffffffffffffffffffffffffffffffffffff1681565b60006106df4261146e565b90506000600860003373ffffffffffffffffffffffffffffffffffffffff1673ffffffffffffffffffffffffffffffffffffffff16815260200190815260200160002090508163ffffffff168160000160009054906101000a900463ffffffff1663ffffffff1603610786576040517f08c379a000000000000000000000000000000000000000000000000000000000815260040161077d906128a6565b60405180910390fd5b8163ffffffff1660018260000160009054906101000a900463ffffffff166107ae91906128f5565b63ffffffff16036107fa5760018160000160048282829054906101000a900461ffff166107db919061292d565b92506101000a81548161ffff021916908361ffff16021790555061081b565b60018160000160046101000a81548161ffff021916908361ffff1602179055505b818160000160006101000a81548163ffffffff021916908363ffffffff16021790555060006009549050600a548260000160049054906101000a900461ffff1661ffff161061088f57612710600b546127106108779190612963565b826108829190612997565b61088c9190612a08565b90505b808260000160068282829054906101000a90046fffffffffffffffffffffffffffffffff166108be9190612a39565b92506101000a8154816fffffffffffffffffffffffffffffffff02191690836fffffffffffffffffffffffffffffffff16021790555060006108fe6106a5565b600a61090a9190612bb0565b826109159190612997565b90506109213382611486565b3373ffffffffffffffffffffffffffffffffffffffff167f5518a10ceebf063bdd883c5efedfe97a9ee7f8f37bb28b7729009216f560cd598460000160049054906101000a900461ffff168360405161097b929190612bfb565b60405180910390a250505050565b60006109944261146e565b905090565b600080600080600860008673ffffffffffffffffffffffffffffffffffffffff1673ffffffffffffffffffffffffffffffffffffffff1681526020019081526020016000206040518060600160405290816000820160009054906101000a900463ffffffff1663ffffffff1663ffffffff1681526020016000820160049054906101000a900461ffff1661ffff1661ffff1681526020016000820160069054906101000a90046fffffffffffffffffffffffffffffffff166fffffffffffffffffffffffffffffffff166fffffffffffffffffffffffffffffffff16815250509050806000015181602001518260400151935093509350509193909250565b60008060008373ffffffffffffffffffffffffffffffffffffffff1673ffffffffffffffffffffffffffffffffffffffff168152602001908152602001600020549050919050565b610ae861125e565b610af26000611508565b565b600d6020528060005260406000206000915090505481565b600060608060008060006060610b206115ce565b610b28611609565b46306000801b600067ffffffffffffffff811115610b4957610b48612c24565b5b604051908082528060200260200182016040528015610b775781602001602082028036833780820191505090505b507f0f00000000000000000000000000000000000000000000000000000000000000959493929190965096509650965096509650965090919293949596565b6000600560009054906101000a900473ffffffffffffffffffffffffffffffffffffffff16905090565b610be861125e565b600081118015610bfa57506103e88111155b610c39576040517f08c379a0000000000000000000000000000000000000000000000000000000008152600401610c3090612c9f565b60405180910390fd5b8060098190555050565b606060048054610c5290612751565b80601f0160208091040260200160405190810160405280929190818152602001828054610c7e90612751565b8015610ccb5780601f10610ca057610100808354040283529160200191610ccb565b820191906000526020600020905b815481529060010190602001808311610cae57829003601f168201915b5050505050905090565b82421115610d18576040517f08c379a0000000000000000000000000000000000000000000000000000000008152600401610d0f90612d0b565b60405180910390fd5b60008511610d5b576040517f08c379a0000000000000000000000000000000000000000000000000000000008152600401610d5290612d77565b60405180910390fd5b6000600d60003373ffffffffffffffffffffffffffffffffffffffff1673ffffffffffffffffffffffffffffffffffffffff168152602001908152602001600020549050600181610dac9190612963565b600d60003373ffffffffffffffffffffffffffffffffffffffff1673ffffffffffffffffffffffffffffffffffffffff1681526020019081526020016000208190555060007f0ee0f51bf426629c1e9cbdaf03110293132925d359925156aaf87790c8ba17d23388888589604051602001610e2c96959493929190612d97565b6040516020818303038152906040528051906020012090506000610e4f82611644565b90506000610eaa86868080601f016020809104026020016040519081016040528093929190818152602001838380828437600081840152601f19601f820116905080830192505050505050508361165e90919063ffffffff16565b9050600c60009054906101000a900473ffffffffffffffffffffffffffffffffffffffff1673ffffffffffffffffffffffffffffffffffffffff168173ffffffffffffffffffffffffffffffffffffffff1614610f3c576040517f08c379a0000000000000000000000000000000000000000000000000000000008152600401610f3390612e44565b60405180910390fd5b610f46338a611486565b873373ffffffffffffffffffffffffffffffffffffffff167fd95107f4584744c6c893a04c43058aadd1ce8aac8ca5d64140eaf277de6c1d578b604051610f8d9190612251565b60405180910390a3505050505050505050565b60086020528060005260406000206000915090508060000160009054906101000a900463ffffffff16908060000160049054906101000a900461ffff16908060000160069054906101000a90046fffffffffffffffffffffffffffffffff16905083565b60008061100f611244565b905061101c81858561137a565b600191505092915050565b60095481565b61103561125e565b600073ffffffffffffffffffffffffffffffffffffffff168173ffffffffffffffffffffffffffffffffffffffff16036110a4576040517f08c379a000000000000000000000000000000000000000000000000000000000815260040161109b90612eb0565b60405180910390fd5b80600c60006101000a81548173ffffffffffffffffffffffffffffffffffffffff021916908373ffffffffffffffffffffffffffffffffffffffff1602179055508073ffffffffffffffffffffffffffffffffffffffff167fbd3eb9bd8180ec207ddf002fc988007100cdd87326029bf5c65befc588eae65760405160405180910390a250565b6000600160008473ffffffffffffffffffffffffffffffffffffffff1673ffffffffffffffffffffffffffffffffffffffff16815260200190815260200160002060008373ffffffffffffffffffffffffffffffffffffffff1673ffffffffffffffffffffffffffffffffffffffff16815260200190815260200160002054905092915050565b600b5481565b600a5481565b6111c661125e565b600073ffffffffffffffffffffffffffffffffffffffff168173ffffffffffffffffffffffffffffffffffffffff16036112385760006040517f1e4fbdf700000000000000000000000000000000000000000000000000000000815260040161122f9190612305565b60405180910390fd5b61124181611508565b50565b600033905090565b611259838383600161168a565b505050565b611266611244565b73ffffffffffffffffffffffffffffffffffffffff16611284610bb6565b73ffffffffffffffffffffffffffffffffffffffff16146112e3576112a7611244565b6040517f118cdaa70000000000000000000000000000000000000000000000000000000081526004016112da9190612305565b60405180910390fd5b565b60006112f1848461112b565b90507fffffffffffffffffffffffffffffffffffffffffffffffffffffffffffffffff8110156113745781811015611364578281836040517ffb8f41b200000000000000000000000000000000000000000000000000000000815260040161135b93929190612ed0565b60405180910390fd5b6113738484848403600061168a565b5b50505050565b600073ffffffffffffffffffffffffffffffffffffffff168373ffffffffffffffffffffffffffffffffffffffff16036113ec5760006040517f96c6fd1e0000000000000000000000000000000000000000000000000000000081526004016113e39190612305565b60405180910390fd5b600073ffffffffffffffffffffffffffffffffffffffff168273ffffffffffffffffffffffffffffffffffffffff160361145e5760006040517fec442f050000000000000000000000000000000000000000000000000000000081526004016114559190612305565b60405180910390fd5b611469838383611861565b505050565b6000620151808261147f9190612a08565b9050919050565b600073ffffffffffffffffffffffffffffffffffffffff168273ffffffffffffffffffffffffffffffffffffffff16036114f85760006040517fec442f050000000000000000000000000000000000000000000000000000000081526004016114ef9190612305565b60405180910390fd5b61150460008383611861565b5050565b6000600560009054906101000a900473ffffffffffffffffffffffffffffffffffffffff16905081600560006101000a81548173ffffffffffffffffffffffffffffffffffffffff021916908373ffffffffffffffffffffffffffffffffffffffff1602179055508173ffffffffffffffffffffffffffffffffffffffff168173ffffffffffffffffffffffffffffffffffffffff167f8be0079c531659141344cd1fd0a4f28419497f9722a3daafe3b4186f6b6457e060405160405180910390a35050565b606061160460067f0000000000000000000000000000000000000000000000000000000000000000611a8690919063ffffffff16565b905090565b606061163f60077f0000000000000000000000000000000000000000000000000000000000000000611a8690919063ffffffff16565b905090565b6000611657611651611b36565b83611bed565b9050919050565b60008060008061166e8686611c2e565b92509250925061167e8282611c8a565b82935050505092915050565b600073ffffffffffffffffffffffffffffffffffffffff168473ffffffffffffffffffffffffffffffffffffffff16036116fc5760006040517fe602df050000000000000000000000000000000000000000000000000000000081526004016116f39190612305565b60405180910390fd5b600073ffffffffffffffffffffffffffffffffffffffff168373ffffffffffffffffffffffffffffffffffffffff160361176e5760006040517f94280d620000000000000000000000000000000000000000000000000000000081526004016117659190612305565b60405180910390fd5b81600160008673ffffffffffffffffffffffffffffffffffffffff1673ffffffffffffffffffffffffffffffffffffffff16815260200190815260200160002060008573ffffffffffffffffffffffffffffffffffffffff1673ffffffffffffffffffffffffffffffffffffffff16815260200190815260200160002081905550801561185b578273ffffffffffffffffffffffffffffffffffffffff168473ffffffffffffffffffffffffffffffffffffffff167f8c5be1e5ebec7d5bd14f71427d1e84f3dd0314c0f7b2291e5b200ac8c7c3b925846040516118529190612251565b60405180910390a35b50505050565b600073ffffffffffffffffffffffffffffffffffffffff168373ffffffffffffffffffffffffffffffffffffffff16036118b35780600260008282546118a79190612963565b92505081905550611986565b60008060008573ffffffffffffffffffffffffffffffffffffffff1673ffffffffffffffffffffffffffffffffffffffff1681526020019081526020016000205490508181101561193f578381836040517fe450d38c00000000000000000000000000000000000000000000000000000000815260040161193693929190612ed0565b60405180910390fd5b8181036000808673ffffffffffffffffffffffffffffffffffffffff1673ffffffffffffffffffffffffffffffffffffffff16815260200190815260200160002081905550505b600073ffffffffffffffffffffffffffffffffffffffff168273ffffffffffffffffffffffffffffffffffffffff16036119cf5780600260008282540392505081905550611a1c565b806000808473ffffffffffffffffffffffffffffffffffffffff1673ffffffffffffffffffffffffffffffffffffffff168152602001908152602001600020600082825401925050819055505b8173ffffffffffffffffffffffffffffffffffffffff168373ffffffffffffffffffffffffffffffffffffffff167fddf252ad1be2c89b69c2b068fc378daa952ba7f163c4a11628f55a4df523b3ef83604051611a799190612251565b60405180910390a3505050565b606060ff60001b8314611aa357611a9c83611dee565b9050611b30565b818054611aaf90612751565b80601f0160208091040260200160405190810160405280929190818152602001828054611adb90612751565b8015611b285780601f10611afd57610100808354040283529160200191611b28565b820191906000526020600020905b815481529060010190602001808311611b0b57829003601f168201915b505050505090505b92915050565b60007f000000000000000000000000000000000000000000000000000000000000000073ffffffffffffffffffffffffffffffffffffffff163073ffffffffffffffffffffffffffffffffffffffff16148015611bb257507f000000000000000000000000000000000000000000000000000000000000000046145b15611bdf577f00000000000000000000000000000000000000000000000000000000000000009050611bea565b611be7611e62565b90505b90565b60006040517f190100000000000000000000000000000000000000000000000000000000000081528360028201528260228201526042812091505092915050565b60008060006041845103611c735760008060006020870151925060408701519150606087015160001a9050611c6588828585611ef8565b955095509550505050611c83565b60006002855160001b9250925092505b9250925092565b60006003811115611c9e57611c9d612f07565b5b826003811115611cb157611cb0612f07565b5b0315611dea5760016003811115611ccb57611cca612f07565b5b826003811115611cde57611cdd612f07565b5b03611d15576040517ff645eedf00000000000000000000000000000000000000000000000000000000815260040160405180910390fd5b60026003811115611d2957611d28612f07565b5b826003811115611d3c57611d3b612f07565b5b03611d81578060001c6040517ffce698f7000000000000000000000000000000000000000000000000000000008152600401611d789190612251565b60405180910390fd5b600380811115611d9457611d93612f07565b5b826003811115611da757611da6612f07565b5b03611de957806040517fd78bce0c000000000000000000000000000000000000000000000000000000008152600401611de09190612f36565b60405180910390fd5b5b5050565b60606000611dfb83611fec565b90506000602067ffffffffffffffff811115611e1a57611e19612c24565b5b6040519080825280601f01601f191660200182016040528015611e4c5781602001600182028036833780820191505090505b5090508181528360208201528092505050919050565b60007f8b73c3c69bb8fe3d512ecc4cf759cc79239f7b179b0ffacaa9a75d522b39400f7f00000000000000000000000000000000000000000000000000000000000000007f00000000000000000000000000000000000000000000000000000000000000004630604051602001611edd959493929190612f51565b60405160208183030381529060405280519060200120905090565b60008060007f7fffffffffffffffffffffffffffffff5d576e7357a4501ddfe92f46681b20a08460001c1115611f38576000600385925092509250611fe2565b600060018888888860405160008152602001604052604051611f5d9493929190612fa4565b6020604051602081039080840390855afa158015611f7f573d6000803e3d6000fd5b505050602060405103519050600073ffffffffffffffffffffffffffffffffffffffff168173ffffffffffffffffffffffffffffffffffffffff1603611fd357600060016000801b93509350935050611fe2565b8060008060001b935093509350505b9450945094915050565b60008060ff8360001c169050601f811115612033576040517fb3512b0c00000000000000000000000000000000000000000000000000000000815260040160405180910390fd5b80915050919050565b600081519050919050565b600082825260208201905092915050565b60005b8381101561207657808201518184015260208101905061205b565b60008484015250505050565b6000601f19601f8301169050919050565b600061209e8261203c565b6120a88185612047565b93506120b8818560208601612058565b6120c181612082565b840191505092915050565b600060208201905081810360008301526120e68184612093565b905092915050565b600080fd5b600080fd5b600073ffffffffffffffffffffffffffffffffffffffff82169050919050565b6000612123826120f8565b9050919050565b61213381612118565b811461213e57600080fd5b50565b6000813590506121508161212a565b92915050565b6000819050919050565b61216981612156565b811461217457600080fd5b50565b60008135905061218681612160565b92915050565b600080604083850312156121a3576121a26120ee565b5b60006121b185828601612141565b92505060206121c285828601612177565b9150509250929050565b60008115159050919050565b6121e1816121cc565b82525050565b60006020820190506121fc60008301846121d8565b92915050565b60008060408385031215612219576122186120ee565b5b600061222785828601612177565b925050602061223885828601612177565b9150509250929050565b61224b81612156565b82525050565b60006020820190506122666000830184612242565b92915050565b600080600060608486031215612285576122846120ee565b5b600061229386828701612141565b93505060206122a486828701612141565b92505060406122b586828701612177565b9150509250925092565b600060ff82169050919050565b6122d5816122bf565b82525050565b60006020820190506122f060008301846122cc565b92915050565b6122ff81612118565b82525050565b600060208201905061231a60008301846122f6565b92915050565b600063ffffffff82169050919050565b61233981612320565b82525050565b60006020820190506123546000830184612330565b92915050565b6000602082840312156123705761236f6120ee565b5b600061237e84828501612141565b91505092915050565b600061ffff82169050919050565b61239e81612387565b82525050565b60006fffffffffffffffffffffffffffffffff82169050919050565b6123c9816123a4565b82525050565b60006060820190506123e46000830186612330565b6123f16020830185612395565b6123fe60408301846123c0565b949350505050565b60007fff0000000000000000000000000000000000000000000000000000000000000082169050919050565b61243b81612406565b82525050565b6000819050919050565b61245481612441565b82525050565b600081519050919050565b600082825260208201905092915050565b6000819050602082019050919050565b61248f81612156565b82525050565b60006124a18383612486565b60208301905092915050565b6000602082019050919050565b60006124c58261245a565b6124cf8185612465565b93506124da83612476565b8060005b8381101561250b5781516124f28882612495565b97506124fd836124ad565b9250506001810190506124de565b5085935050505092915050565b600060e08201905061252d600083018a612432565b818103602083015261253f8189612093565b905081810360408301526125538188612093565b90506125626060830187612242565b61256f60808301866122f6565b61257c60a083018561244b565b81810360c083015261258e81846124ba565b905098975050505050505050565b6000602082840312156125b2576125b16120ee565b5b60006125c084828501612177565b91505092915050565b6125d281612441565b81146125dd57600080fd5b50565b6000813590506125ef816125c9565b92915050565b600080fd5b600080fd5b600080fd5b60008083601f84011261261a576126196125f5565b5b8235905067ffffffffffffffff811115612637576126366125fa565b5b602083019150836001820283011115612653576126526125ff565b5b9250929050565b600080600080600060808688031215612676576126756120ee565b5b600061268488828901612177565b9550506020612695888289016125e0565b94505060406126a688828901612177565b935050606086013567ffffffffffffffff8111156126c7576126c66120f3565b5b6126d388828901612604565b92509250509295509295909350565b600080604083850312156126f9576126f86120ee565b5b600061270785828601612141565b925050602061271885828601612141565b9150509250929050565b7f4e487b7100000000000000000000000000000000000000000000000000000000600052602260045260246000fd5b6000600282049050600182168061276957607f821691505b60208210810361277c5761277b612722565b5b50919050565b7f626f6e7573446179206f7574206f662072616e67650000000000000000000000600082015250565b60006127b8601583612047565b91506127c382612782565b602082019050919050565b600060208201905081810360008301526127e7816127ab565b9050919050565b7f626f6e7573427073206f7574206f662072616e67650000000000000000000000600082015250565b6000612824601583612047565b915061282f826127ee565b602082019050919050565b6000602082019050818103600083015261285381612817565b9050919050565b7f416c7265616479206c6f6767656420746f646179000000000000000000000000600082015250565b6000612890601483612047565b915061289b8261285a565b602082019050919050565b600060208201905081810360008301526128bf81612883565b9050919050565b7f4e487b7100000000000000000000000000000000000000000000000000000000600052601160045260246000fd5b600061290082612320565b915061290b83612320565b9250828201905063ffffffff811115612927576129266128c6565b5b92915050565b600061293882612387565b915061294383612387565b9250828201905061ffff81111561295d5761295c6128c6565b5b92915050565b600061296e82612156565b915061297983612156565b9250828201905080821115612991576129906128c6565b5b92915050565b60006129a282612156565b91506129ad83612156565b92508282026129bb81612156565b915082820484148315176129d2576129d16128c6565b5b5092915050565b7f4e487b7100000000000000000000000000000000000000000000000000000000600052601260045260246000fd5b6000612a1382612156565b9150612a1e83612156565b925082612a2e57612a2d6129d9565b5b828204905092915050565b6000612a44826123a4565b9150612a4f836123a4565b925082820190506fffffffffffffffffffffffffffffffff811115612a7757612a766128c6565b5b92915050565b60008160011c9050919050565b6000808291508390505b6001851115612ad457808604811115612ab057612aaf6128c6565b5b6001851615612abf5780820291505b8081029050612acd85612a7d565b9450612a94565b94509492505050565b600082612aed5760019050612ba9565b81612afb5760009050612ba9565b8160018114612b115760028114612b1b57612b4a565b6001915050612ba9565b60ff841115612b2d57612b2c6128c6565b5b8360020a915084821115612b4457612b436128c6565b5b50612ba9565b5060208310610133831016604e8410600b8410161715612b7f5782820a905083811115612b7a57612b796128c6565b5b612ba9565b612b8c8484846001612a8a565b92509050818404811115612ba357612ba26128c6565b5b81810290505b9392505050565b6000612bbb82612156565b9150612bc6836122bf565b9250612bf37fffffffffffffffffffffffffffffffffffffffffffffffffffffffffffffffff8484612add565b905092915050565b6000604082019050612c106000830185612395565b612c1d6020830184612242565b9392505050565b7f4e487b7100000000000000000000000000000000000000000000000000000000600052604160045260246000fd5b7f4f7574206f662072616e67650000000000000000000000000000000000000000600082015250565b6000612c89600c83612047565b9150612c9482612c53565b602082019050919050565b60006020820190508181036000830152612cb881612c7c565b9050919050565b7f6578706972656400000000000000000000000000000000000000000000000000600082015250565b6000612cf5600783612047565b9150612d0082612cbf565b602082019050919050565b60006020820190508181036000830152612d2481612ce8565b9050919050565b7f616d6f756e743d30000000000000000000000000000000000000000000000000600082015250565b6000612d61600883612047565b9150612d6c82612d2b565b602082019050919050565b60006020820190508181036000830152612d9081612d54565b9050919050565b600060c082019050612dac600083018961244b565b612db960208301886122f6565b612dc66040830187612242565b612dd3606083018661244b565b612de06080830185612242565b612ded60a0830184612242565b979650505050505050565b7f6261642073696700000000000000000000000000000000000000000000000000600082015250565b6000612e2e600783612047565b9150612e3982612df8565b602082019050919050565b60006020820190508181036000830152612e5d81612e21565b9050919050565b7f7a65726f20616464726573730000000000000000000000000000000000000000600082015250565b6000612e9a600c83612047565b9150612ea582612e64565b602082019050919050565b60006020820190508181036000830152612ec981612e8d565b9050919050565b6000606082019050612ee560008301866122f6565b612ef26020830185612242565b612eff6040830184612242565b949350505050565b7f4e487b7100000000000000000000000000000000000000000000000000000000600052602160045260246000fd5b6000602082019050612f4b600083018461244b565b92915050565b600060a082019050612f66600083018861244b565b612f73602083018761244b565b612f80604083018661244b565b612f8d6060830185612242565b612f9a60808301846122f6565b9695505050505050565b6000608082019050612fb9600083018761244b565b612fc660208301866122cc565b612fd3604083018561244b565b612fe0606083018461244b565b9594505050505056fea2646970667358221220c56157a5cf82d0aabe2ea1969e01b7e80e61bf71735b49adc396a1a25d1ed0df64736f6c634300081c0033",
  "linkReferences": {},
  "deployedLinkReferences": {}
}